:100000000C942A000C9443000C9455000C9434007A
:100010000C9434000C9434000C9434000C94340090
:100020000C9434000C9434000C9434000C94340080
:100030000C9434000C9434000C9434000C94340070
:100040000C9434000C9434000C9434000C94340060
:100050000C94340011241FBECFE5D4E0DEBFCDBF29
:100060000E9436000C9467000C9400008FEF8ABB4E
:100070001BBAD99A11BA8BB7806C8BBF85B78A60CF
:1000800085BF7894FFCF1F920F920FB60F92112465
:100090008F939F939BB381E089278BBB9F918F9117
:1000A0000F900FBE0F901F9018951F920F920FB6D2
:1000B0000F9211248F939F939BB386E089278BBB6C
:1000C0009F918F910F900FBE0F901F901895F894ED
:0200D000FFCF60
:00000001FF
